S01100006D6F757365776172652E737265633B
S11300000C9434000C9449000C9449000C9449005D
S11300100C9449000C9449000C9449000C94490038
S11300200C9449000C9449000C9449000C94490028
S11300300C9449000C9449000C9449000C94490018
S11300400C9449000C9449000C9449000C94490008
S11300500C9449000C9449000C9449000C944900F8
S11300600C9449000C94490011241FBECFEFD8E032
S1130070DEBFCDBF11E0A0E0B1E0E4E7F1E002C0F3
S113008005900D92A831B107D9F70E947D000C9418
S1130090B8000C94000088E08093C10087E690E0EB
S11300A09093C5008093C4008AB180678AB984B1F3
S11300B0826284B980E888BD8CE087BD83EA84BD10
S11300C082E085BD0895E0ECF0E0908195FFFDCFDE
S11300D08093C6000895CF93DF93EC018881882331
S11300E031F021960E94630089918111FBCF8DE04C
S11300F00E946300DF91CF9108950E944B0061E05C
S113010080E00E94A60061E080E00E94AF0080E0F1
S113011091E00E946B002D9A299A4F99FECF5C9A28
S113012060E088EC0E94A600189909C061E080E0B4
S11301300E94A60061E080E00E94AF002D988FE34A
S11301409CE90197F1F700C00000EACF613021F487
S11301505A9A809588BD08955A9888BD089561304B
S113016021F45B9A809587BD08955B9887BD0895B7
S1070170F894FFCF2D
S11301744173746F6E204D6F75736520776974686D
S10B0184204156522043000003
S9030000FC
