:100000000C9434000C9451000C9451000C94510049
:100010000C9451000C9451000C9451000C9451001C
:100020000C9451000C9451000C9451000C9451000C
:100030000C9451000C9451000C9451000C945100FC
:100040000C9451000C9451000C9451000C945100EC
:100050000C9451000C9451000C9451000C945100DC
:100060000C9451000C94510011241FBECFEFD8E026
:10007000DEBFCDBF11E0A0E0B1E0EAE2F6E002C0F1
:1000800005900D92AC31B107D9F721E0ACE1B1E0B8
:1000900001C01D92AE32B207E1F70E9496000C94A7
:1000A00013030C94000088E08093C10087E690E081
:1000B0009093C5008093C4008AB180678AB984B1E7
:1000C000826284B980E888BD8CE087BD93EA94BDE4
:1000D00092E095BD93E490937C0080937E0085E848
:1000E00080937A0008959091C00095FFFCCF809393
:1000F000C6000895CF93DF93EC018991882319F00E
:100100000E947300FACF8DE0DF91CF910C947300C1
:1001100080917A00806480937A0080917A0086FDD5
:10012000FCCF809178009091790008950E9453004F
:1001300061E080E00E94650161E080E00E946D0165
:1001400084E091E00E947A00299A4F99FECF2FEF28
:1001500083ED90E3215080409040E1F700C0000023
:100160005C9A2D9A61E088E70E94650161E088E76A
:100170000E946D012FEF82E597E021508040904072
:10018000E1F700C0000013E405E4CFEFD0E01093E6
:100190007C000E948800092E000CAA0BBB0B8093E8
:1001A000240190932501A0932601B0932701009389
:1001B0007C000E948800AC01092E000C660B770BB6
:1001C00040932001509321016093220170932301F9
:1001D0006091240170912501681B790B70932D01AA
:1001E00060932C01072E000C880B990B0E941A02B9
:1001F00020910001309101014091020150910301D1
:100200000E94A6026B017C01609328017093290172
:1002100080932A0190932B019B01AC0160E070E078
:1002200080EA92E40E9475010E94E2015B017093F2
:100230001F0160931E0120E030E040EA52E4C70154
:10024000B6010E9476010E94E2019B0170931D019C
:1002500060931C018FEFA816B10429F024F0D0930D
:100260001F01C0931E0180911E0190911F0197FFF5
:1002700004C010921F0110921E012F3F310529F07A
:1002800024F0D0931D01C0931C0180911C0190911A
:100290001D0197FF04C010921D0110921C0161E026
:1002A00080911C010E946D0161E080911E010E94FD
:1002B000650118996CCF61E080E00E94650161E002
:1002C00080E00E946D012D98FFCF613019F45A9A99
:1002D000809501C05A9888BD0895613019F45B9AE1
:1002E000809501C05B9887BD08955058BB27AA2709
:1002F0000E948D010C946C020E945E0238F00E94F4
:10030000650220F039F49F3F19F426F40C945B0247
:100310000EF4E095E7FB0C945502E92F0E947D0254
:1003200058F3BA17620773078407950720F079F42A
:10033000A6F50C949F020EF4E0950B2EBA2FA02D7B
:100340000B01B90190010C01CA01A0011124FF2782
:10035000591B99F0593F50F4503E68F11A16F0407D
:10036000A22F232F342F4427585FF3CF469537957C
:100370002795A795F0405395C9F77EF41F16BA0B41
:10038000620B730B840BBAF09150A1F0FF0FBB1FEF
:10039000661F771F881FC2F70EC0BA0F621F731F38
:1003A000841F48F4879577956795B795F7959E3F95
:1003B00008F0B0CF9395880F08F09927EE0F979526
:1003C000879508950E94E9016894B1110C94A002E8
:1003D00008950E94850288F09F5798F0B92F9927B9
:1003E000B751B0F0E1F0660F771F881F991F1AF020
:1003F000BA95C9F714C0B13091F00E949F02B1E0E4
:1004000008950C949F02672F782F8827B85F39F0E2
:10041000B93FCCF3869577956795B395D9F73EF4B8
:1004200090958095709561957F4F8F4F9F4F089560
:10043000E89409C097FB3EF490958095709561957E
:100440007F4F8F4F9F4F9923A9F0F92F96E9BB2734
:100450009395F695879577956795B795F111F8CFB0
:10046000FAF4BB0F11F460FF1BC06F5F7F4F8F4F1B
:100470009F4F16C0882311F096E911C0772321F011
:100480009EE8872F762F05C0662371F096E8862FA9
:1004900070E060E02AF09A95660F771F881FDAF700
:1004A000880F9695879597F9089597F99F6780E843
:1004B00070E060E008959FEF80EC089500240A94B6
:1004C0001616170618060906089500240A9412162F
:1004D0001306140605060895092E0394000C11F462
:1004E000882352F0BB0F40F4BF2B11F460FF04C00F
:1004F0006F5F7F4F8F4F9F4F089557FD9058440F68
:10050000551F59F05F3F71F04795880F97FB991F72
:1005100061F09F3F79F0879508951216130614062F
:10052000551FF2CF4695F1DF08C0161617061806BC
:10053000991FF1CF86957105610508940895E89497
:10054000BB2766277727CB0197F908950E94B90248
:100550000C946C020E945E0238F00E94650220F04A
:10056000952311F00C9455020C945B0211240C9409
:10057000A0020E947D0270F3959FC1F3950F50E099
:10058000551F629FF001729FBB27F00DB11D639F45
:10059000AA27F00DB11DAA1F649F6627B00DA11DEB
:1005A000661F829F2227B00DA11D621F739FB00D91
:1005B000A11D621F839FA00D611D221F749F332701
:1005C000A00D611D231F849F600D211D822F762F9A
:1005D0006A2F11249F5750409AF0F1F088234AF077
:1005E000EE0FFF1FBB1F661F771F881F91505040E3
:1005F000A9F79E3F510580F00C9455020C94A0027F
:100600005F3FE4F3983ED4F3869577956795B79569
:10061000F795E7959F5FC1F7FE2B880F911D969583
:0A062000879597F90895F894FFCF2D
:10062A009A99193E4173746F6E204D6F75736520E8
:0C063A007769746820415652204300008C
:00000001FF
